:1000000056C27AC279C278C277C276C275C274C249
:1000100073C272C271C270C26FC26EC26DC2000082
:100020000000000000000000005F0000000000036E
:1000300000030000247E24247E24002E2A7F2A3AF6
:1000400000004626100864620020544A54205000E4
:100050000000040200000000003C4200000000001C
:10006000423C0000001054385410000010107C1066
:100070001000000000806000000010101010100040
:1000800000000060600000004020100804003C6296
:10009000524A463C0044427E404000006452525264
:1000A000524C002442424A4A34003028247E202008
:1000B000002E4A4A4A4A32003C4A4A4A4A30000222
:1000C0000262120A0600344A4A4A4A34000C52526A
:1000D00052523C0000000048000000000080640014
:1000E00000000000102844000000282828282800CC
:1000F0000000442810000000040202520A04003CE0
:10010000425A565A1C7C121212127C007E4A4A4AEB
:100110004A34003C4242424224007E424242241879
:10012000007E4A4A4A4A42007E0A0A0A0A02003C03
:100130004242525234007E080808087E00004242C3
:100140007E42420030404040403E007E080814227B
:1001500040007E4040404040007E040808047E008D
:100160007E040810207E003C424242423C007E1247
:100170001212120C003C425262423C007E121212D9
:10018000324C00244A4A4A4A30000202027E0202ED
:10019000023E404040403E001E204040201E003EA7
:1001A000402020403E004224181824420002040847
:1001B000700804024262524A46420000007E4242F7
:1001C000000000040810204000000042427E0000B1
:1001D0000008047E040800808080808080803C428B
:1001E00099A5A5814200205454547800007E4848C7
:1001F0004830000000384444440000304848487EFD
:1002000000003854545448000000007C0A020000EA
:1002100018A4A4A4A47C007E0808087000000000B4
:10022000487A400000004080807A00007E18244018
:1002300000000000003E404000007C04780478008C
:10024000007C04040478000038444444380000FC76
:1002500024242418000018242424FC80000078049E
:10026000040400004854545420000000043E44405C
:1002700000003C4040403C00000C3040300C00008E
:100280003C4038403C0000442810284400001CA09A
:10029000A0A07C00004464544C440000080876424E
:1002A00042000000007E0000000042427608080084
:1002B00000000402040200000000000000005F00D3
:1002C000000003000300143E143E14242A7F2A1267
:1002D000433308666136495522500005030000008B
:1002E0001C2241000041221C0014083E081408088A
:1002F0003E08080050300000080808080800606048
:10030000000020100804023E5149453E0004027FCF
:1003100000426151494622414949361814127F1062
:1003200027454545393E494949320101710907369A
:1003300049494936264949493E00363600000056AB
:100340003600000814224100141414141400412231
:10035000140802015109063E4159555E7E090909FA
:100360007E7F494949363E414141227F4141413EDC
:100370007F494949417F090909013E4141493A7F85
:100380000808087F00417F4100304040403F7F081F
:100390001422417F404040407F020C027F7F0204D4
:1003A000087F3E4141413E7F090909061E21212166
:1003B0005E7F09090976264949493201017F010119
:1003C0003F4040403F1F2040201F7F2010207F41A2
:1003D000221C224107087008076151494543007FEC
:1003E00041000002040810200000417F00040201C7
:1003F0000204404040404000010204002054545494
:10040000787F444444383844444444384444447F26
:10041000385454541804047E0505085454543C7F41
:100420000804047800447D40002040443D007F10D3
:1004300028440000417F40007C047804787C080454
:10044000047838444444387C1414140808141414F0
:100450007C007C080404485454542004043F444461
:100460003C4040207C1C2040201C3C4030403C4410
:10047000281028440C5050503C4464544C4400080C
:1004800036414100007F0000414136080002010270
:100490000402A6D580A82FD300408D142010A1C837
:1004A000DA1281CFD922DB002EA4E90781091124B9
:1004B0001FBECFE5D2E0DEBFCDBF10E0A0E6B0E0CA
:1004C000EAEAF3E102C005900D92AE36B107D9F722
:1004D00020E0AEE6B0E001C01D92AE37B207E1F712
:1004E00012E0C7E5D2E003C02197FE014FD7C53522
:1004F000D107D1F72ED757C783CDC298BA9A8AE0D1
:100500008A95F1F700C00895C29ABA988AE08A9550
:10051000F1F700C00895C098B89A0895C09AB898A5
:100520000895F9DFF1DFFACFEF92FF920F931F9357
:10053000CF93DF937C01062FC8E0D0E010E8812F35
:1005400080238115C9F0EADFC29ABA988AE08A95B9
:10055000F1F700C0C298BA9A1695219781F7DEDFAD
:10056000D3DF86B38170F7018183DF91CF911F9133
:100570000F91FF90EF90C1CFCEDFE6CF1F93CF93C7
:10058000DF93EC01162FC7DFB8DF6881660F612BA0
:10059000CE01DF91CF911F91C7CFFC01EC5FFE4FE1
:1005A0006081619570E040E051E00396F5C6FC0182
:1005B000ED5FFE4F608308959C01613460F5413228
:1005C00050F5FC01ED5FFE4F8081813031F08230CB
:1005D00009F443C0811501F10895E42FE695E695ED
:1005E000E695F0E0A6E0EE0FFF1FAA95E1F7E60F13
:1005F000F11DE20FF31F242F277081E090E0A0E0AF
:10060000B0E004C0880F991FAA1FBB1F2A95D2F71C
:100610002381822B83830895E42FE695E695E69562
:10062000F0E076E0EE0FFF1F7A95E1F7E60FF11D9F
:10063000E20FF31F477081E090E0A0E0B0E004C05B
:10064000880F991FAA1FBB1F4A95D2F780959095D6
:10065000A095B09523818223DDCF842F8695869542
:10066000869590E056E0880F991F5A95E1F7860F1E
:10067000911DF901E80FF91F477081E090E0A0E0BB
:10068000B0E004C0880F991FAA1FBB1F4A95D2F77C
:1006900023818227BFCF8F929F92AF92BF92CF923A
:1006A000DF92EF92FF920F931F93CF93DF93EC01B2
:1006B000C42EB22E8B01F801E490E11017C089819D
:1006C0008E5F8C0D898390916F009F5F8A81890F67
:1006D0008A83DF91CF911F910F91FF90EF90DF9070
:1006E000CF90BF90AF909F908F90089580917200AF
:1006F0008E1580F080917100E81660F0E81AA12C48
:10070000F12C60916E00A61640F080917000680F89
:100710006F5FC60E0F5F1F4FCECF70E0C70125D6AB
:100720008A0D911DE0917300F0917400E80FF91F9C
:10073000D490912C8C2C8A0C80916F00981610F01C
:10074000A394DFCFD0FE05C0492D4B0D682DCE01FF
:1007500033DFD6949394F0CF7F928F929F92AF9293
:10076000BF92CF92DF92EF92FF920F931F93CF939E
:10077000DF93A82E992ED42FC22FE02FF0E0842FE4
:1007800090E0202F241B330B790137FF03C07C013D
:10079000EE1AFF0A4C2F50E0262F30E0AC2FA61B9C
:1007A000BB0B6D01B7FF03C06901C41AD50ACE1493
:1007B000DF0444F0AF019C01802F0C2FC82F8D2F38
:1007C000D62F682F0D1758F0922F832F9A01492F9B
:1007D000582F8C2FC62F682F802F0D2FD82FBD2E6E
:1007E000B01AC901841B950B97FF03C0CA01821B75
:1007F000930B882E1B2DB7FE02C011E01B0D159523
:1008000077247A94C61798F47724739410C0402FF5
:100810006C2FCE14DF0414F04C2F602F8A2D992DED
:10082000CBDE181917FF02C0C70D1B0D0F5FD017C5
:1008300070F7DF91CF911F910F91FF90EF90DF90B4
:10084000CF90BF90AF909F908F907F9008959F9290
:10085000AF92BF92CF92DF92EF92FF920F931F93CE
:10086000CF93DF93D82FC92F062F142FE22E81E0CC
:10087000F82EF21AD22EC12CC3948C2D880FF7FEBD
:1008800060C08D5FF80EBD2CB10E4B2DAC2CA00EB0
:100890006A2D8D2F9C2F90DE4B2DB02EBC186B2D0A
:1008A0008D2F9C2F89DE912E9D18492D6A2D8D2F1D
:1008B0009C2F82DE492D6B2D8D2F9C2F7DDEBC2C35
:1008C000B10E4B2DAD2CA00E6A2D8D2F9C2F74DEFA
:1008D0004B2DB02EBD186B2D8D2F9C2F6DDE912EC4
:1008E0009C18492D6A2D8D2F9C2F66DE492D6B2D6E
:1008F0008D2F9C2F61DECD1408F4BECF6E2D600FBE
:10090000412F8D2F9C2F58DE4E2D410F602F8D2FA4
:100910009C2F52DE602F6E19412F8D2F9C2F4CDEA5
:10092000412F4E19602F8D2F9C2FDF91CF911F915A
:100930000F91FF90EF90DF90CF90BF90AF909F907E
:100940003BCEDA948B5FF80E8D2D880FF81A9BCF73
:100950007F928F929F92AF92BF92CF92DF92EF924F
:10096000FF920F931F93CF93DF93182FC92EF62E6C
:10097000C42FB22ED1E0D21BE22ED12C802F817059
:10098000A82E802F8270982E802F8470882E802F22
:100990008870782EDE14A8F1802F8970893031F4A8
:1009A0004C2F6B2D6F0D812F9C2D06DE802F8C70B0
:1009B0008C3031F44B2D4C0F6F2D812F9C2DFCDD95
:1009C000802F8670863031F44C2F6F2D6B19812F5C
:1009D0009C2DF2DD0370033009F064C04C2F4B19DD
:1009E0006F2D812F9C2DDF91CF911F910F91FF9043
:1009F000EF90DF90CF90BF90AF909F908F907F90BF
:100A0000DBCDD3948D2D880FD7FF44C0DD5FD80F89
:100A1000A11471F04C2F4E196D2D6F0D812F9C2D4F
:100A2000CBDD4C2F4D196E2D6F0D812F9C2DC4DD0C
:100A3000911471F04C2F4D196F2D6E19812F9C2D33
:100A4000BBDD4C2F4E196F2D6D19812F9C2DB4DD00
:100A5000811471F04D2D4C0F6F2D6E19812F9C2D2F
:100A6000ABDD4E2D4C0F6F2D6D19812F9C2DA4DD0C
:100A7000711409F48FCF4E2D4C0F6D2D6F0D812FFA
:100A80009C2D9ADD4D2D4C0F6E2D6F0D812F9C2DC1
:100A900093DD80CFEA94DB5F8D0F9E2D990FD82FC9
:100AA000D91BB6CFDF91CF911F910F91FF90EF909F
:100AB000DF90CF90BF90AF909F908F907F900895E0
:100AC000CF93DF93DC01403270F5C62FD0E0E62FE4
:100AD000E20FFF27FF1FE134F10514F020E4261B8D
:100AE000211509F1FD013396842F8695869586950B
:100AF00090E036E0880F991F3A95E1F78C0F9D1F23
:100B0000E80FF91F477081E090E001C0880F4A9517
:100B1000EAF7482FAD5FBE4F3C91313061F0323083
:100B2000D9F0311559F0DF91CF910895DF018D9102
:100B3000842B8083FD012150C8F7F5CF809521508B
:100B400090F3DF019D9198239083FD01F8CFDF01A1
:100B50008D9184278083FD012150C8F7E4CFAF92A7
:100B6000BF92CF92DF92EF92FF920F931F93CF939A
:100B7000DF93D82FC92F162F042FD22EF22EE12C5F
:100B8000E394AE2CAA0CFA94BF2CBB0CC12ECE1849
:100B9000402F4F192A2D6C2D8D2F9C2F91DF4F2D1B
:100BA000400F2A2D6C2D8D2F9C2F8ADFC12ECF1840
:100BB000402F4E192B2D6C2D8D2F9C2F81DF4E2D0C
:100BC000400F2B2D6C2D8D2F9C2F7ADFEF14C0F250
:100BD0002D2D220F612F6D19402F8D2F9C2FDF910E
:100BE000CF911F910F91FF90EF90DF90CF90BF902A
:100BF000AF9066CFCF93DF93DC01603408F08EC0F6
:100C0000E42FE20FFF27FF1FB19714F020E2241B0F
:100C1000211509F483C0742F7770FD013396469532
:100C20004695469550E0C6E0440F551FCA95E1F73A
:100C3000460F511DE40FF51FAD5FBE4F711509F44E
:100C400082C038E0371BC32FD0E040E05FEF032EB7
:100C500002C0559547950A94E2F7842F231750F464
:100C6000C21BD1098FEF90E002C095958795CA9578
:100C7000E2F784239C91913059F1923089F19115DA
:100C800059F1231708F44AC07850270FE05CFF4F52
:100C9000283008F441C08C91823028F1823009F468
:100CA00040C0277081E090E0AC0102C0440F551FA6
:100CB0002A95E2F79A019FEF940F8C918130E1F130
:100CC0008230F1F181112AC021958081822336C0C2
:100CD0009081892B8083D5CF809590818923FACF0D
:100CE00090818927F7CF8195EF01922F8883C05C8F
:100CF000DF4F98509830D0F7822F8695869586954D
:100D0000815090E036E0880F991F3A95E1F7E05C5A
:100D1000FF4FE80FF91F27702111C3CFDF91CF914B
:100D20000895EF01822F988190959883C05CDF4FE2
:100D300088508830C0F7E0CF8081892B8083EECF48
:100D400080818927FBCF283008F0A5CFAACFEF926A
:100D5000FF920F931F93CF93DF93D82FC92F162F96
:100D6000F42EE22EADDE202F4F2D612F8D2F9C2FE4
:100D700041DF6FEF6E0D610F202F4F2D8D2F9C2FB8
:100D800039DF0150402F4F0D2E2D612F8D2F9C2FBD
:100D9000DF91CF911F910F91FF90EF9091CEDF9255
:100DA000EF92FF920F931F93CF93DF93182FD92EBB
:100DB000D42FC62F862F820F9927991F7C01CE151D
:100DC0001F0444F0DF91CF911F910F91FF90EF909E
:100DD000DF900895202F4D2F6C2F812F9D2D0ADF3E
:100DE000CF5FEDCF0F931F93CF93DF93EC018B0178
:100DF0002881CB5FDE4F88819981FC01208360E0F0
:100E0000BDDB60E8888199818FDBF8016081888192
:100E100099818ADBDF91CF911F910F9182CBEF9265
:100E2000FF920F931F93CF93DF9300D0CDB7DEB720
:100E30007C01142F00E2060F802F82958F7090E0C6
:100E400080619A838983BE016F5F7F4FC701CADFCC
:100E50000F70602F70E07A836983BE016F5F7F4FF0
:100E6000C701C0DF1E5F106B212F30E03A8329835A
:100E7000BE016F5F7F4FC701B5DF0F900F90DF910D
:100E8000CF911F910F91FF90EF9008958F929F92B5
:100E9000BF92CF92DF92EF92FF920F931F93CF9367
:100EA000DF93EC017C0183E0E80EF11C00E010E030
:100EB0006E01EBEFCE1AEEEFDE0A402F60E0CE01BE
:100EC000AEDF2881F60180819181FC01208360E002
:100ED00055DB60E4F6018081918126DB470180E4E7
:100EE000B82EF40161914F01F601808191811CDBE4
:100EF000BA94B9F716DB0F5F1F4FF0E4EF0EF11C49
:100F000004301105D1F6DF91CF911F910F91FF9021
:100F1000EF90DF90CF90BF909F908F9008959F9219
:100F2000AF92BF92CF92DF92EF92FF920F931F93F7
:100F3000CF93DF9300D0CDB7DEB78C01EFDAE4DAE0
:100F400082E9E82E84E0F82E9AEAA92E94E0B92EE0
:100F500068018BEFC81A8EEFD80AF7019490F80158
:100F60002081F60180819181FC01208360E006DB15
:100F700060E8F60180819181D7DA692DF6018081E0
:100F80009181D2DACEDAFFEFEF1AFF0AAE14BF0476
:100F900021F784E690E0CDD140E060E0C8013FDF7A
:100FA000C801FBDA8FEA90E09A838983BE016F5F04
:100FB0007F4FC80117DF0F900F90DF91CF911F91E6
:100FC0000F91FF90EF90DF90CF90BF90AF909F90E8
:100FD000089587E0E7E6F0E0AEE6B0E001900D921C
:100FE0008A95E1F70895982F31E020E0911102C031
:100FF000822F0895C098B89A8DE08A95F1F7000085
:10100000C09AB89888E28A95F1F786B38170632F09
:10101000A3D1282B82E98A95F1F700C0330F9150B4
:10102000E5CF611101C008959DE09A95F1F70000A8
:10103000C098B89A80FF0DC09DE09A95F1F7000026
:10104000C09AB89892E99A95F1F700C086956150D8
:10105000E8CF92E99A95F1F700C0C09AB8989DE060
:101060009A95F1F70000F2CFC098B89A8FEB93E011
:101070000197F1F700C00000C09AB8988FEB93E099
:101080000197F1F700C0000008950F931F93CF93CD
:10109000DF93EC018C01060F111DC017D10729F455
:1010A000DF91CF911F910F91089568E08991B9DF89
:1010B000F4CFFF920F931F93CF93DF9300D0CDB760
:1010C000DEB78C016A83F42ECFDFF11491F08CEC43
:1010D000898361E0CE010196D8DF61E0CE010296FE
:1010E000D4DF0F900F90DF91CF911F910F91FF9060
:1010F000089585E5898361E0CE010196C6DF68E049
:10110000C801EACFCF92DF92EF92FF920F931F9325
:10111000CF93DF93EC0188E0FE013A96A5E7B0E0BB
:1011200001900D928A95E1F740E06EEB85E790E043
:10113000C0DF8E010F5F1F4F6E018AE0C80ED11C09
:10114000780188E050DFF70181937F01EC15FD0500
:10115000C1F788E0FE013A96A5E7B0E001900D9254
:101160008A95E1F740E064E485E790E0A2DF8881BA
:101170008950990B95958795959587956DE570E0C4
:10118000F4D0D7D088E0FE013A96A5E7B0E0019010
:101190000D928A95E1F740E06EEB85E790E089DFFC
:1011A00088E021DFF80181938F01EC15FD05C1F77F
:1011B00089819A8124E0969587952A95E1F7DF91B8
:1011C000CF911F910F91FF90EF90DF90CF900895F6
:1011D000CF93DF93FC01EC01219689E0DE011D92A3
:1011E0008A95E9F769506430D0F463706295660FB0
:1011F000607E85818F79682B658388E03A96A5E7C4
:10120000B0E001900D928A95E1F740E06EE485E749
:1012100090E04FDF69E0CE01DF91CF9136CFDF91D3
:10122000CF9108958F929F92AF92BF92DF92EF92EB
:10123000FF920F931F93CF93DF930F92CDB7DEB73B
:101240008C01FC016083C09AB8980EDF80EF89831F
:1012500061E0CE01019619DFF12C812C912C540113
:10126000839481E0C0DED82EEE24E394811101C086
:10127000E12C81E0B8DE91E0811101C090E0E9123B
:1012800019C088E0E5E7F0E0D8011A9601900D92C8
:101290008A95E1F7F8016081C8010F90DF91CF9145
:1012A0001F910F91FF90EF90DF90BF90AF909F90B4
:1012B0008F908ECF8F2D8770A501940104C0220FCF
:1012C000331F441F551F8A95D2F7DA01C901EF2D4C
:1012D000E695E695E695F0E0EB58FF4F2081D110BA
:1012E0000EC080959095A095B0958223808361E093
:1012F0008E2D97DEF39430E4F312B3CFC2CF822B5E
:10130000F5CFE5E7F0E01082118212821382148299
:10131000158216821782089508959C0121153105C2
:1013200009F4089582E08A95F1F700C0215031094F
:10133000F5CF9C012115310509F408958FEC97E054
:101340000197F1F700C0000021503109F3CF089553
:101350000895FDDFFDDFFECF002480FD060E660F41
:1013600011F08695D1F7802D08950024552704C0EB
:10137000080E591F880F991F009729F076956795D9
:10138000B8F37105B9F7802D952F0895EE0FFF1F63
:101390000590F491E02D0994DC0101C06D9341505A
:0A13A0005040E0F70895F894FFCFE5
:0E13AA00070801207E1E00050700207EB70206
:00000001FF
